:020000040800F2
:1000000000280020C51C0008C11C0008C11C0008F5
:10001000C11C0008C11C0008C11C00080000000031
:100020000000000000000000000000001D2A000881
:10003000C11C000800000000752A0008B92A000849
:10004000C11C0008C11C0008C11C0008C11C00081C
:10005000C11C0008C11C000889120008C11C00084E
:10006000C11C0008C11C0008C11C0008C11C0008FC
:10007000C11C0008C11C0008C11C0008C11C0008EC
:10008000C11C000801110008C11C0008C11C0008A7
:10009000C11C0008C11C0008C11C0008C11C0008CC
:1000A000C11C000809170008C11C0008C11C000879
:1000B000151700081D17000829170008CD130008A0
:1000C000C11C0008C11C0008C11C0008C11C00089C
:1000D000C11C000897180008991800089B18000810
:1000E000C11C0008C11C0008C11C00080000000061
:1000F0000000000000000000000000000000000000
:100100000000000000000000C11C0008C11C000825
:10011000C11C0008C11C0008C11C0008C11C00084B
:10012000C11C0008C11C0008C11C0008C11C00083B
:10013000C11C0008C11C0008C11C0008C11C00082B
:10014000C11C0008C11C0008C11C0008C11C00081B
:1001500080F0004002E000BF81F0004142001FBF7C
:100160005FEA410392EA030F7FEA226C7FEA236C85
:100170006AD04FEA1262D2EB1363C1BFD21841407A
:1001800048404140B8BF5B42192B88BF704710F010
:10019000004F40F4000020F07F4018BF404211F0B3
:1001A000004F41F4000121F07F4118BF494292EA1B
:1001B000030F3FD0A2F1010241FA03FC10EB0C0047
:1001C000C3F1200301FA03F100F0004302D54942D4
:1001D00060EB4000B0F5000F13D3B0F1807F06D381
:1001E00040084FEA310102F10102FE2A51D2B1F179
:1001F000004F40EBC25008BF20F0010040EA03006E
:100200007047490040EB0000013A28BFB0F5000FED
:10021000EDD2B0FA80FCACF1080CB2EB0C0200FAA3
:100220000CF0AABF00EBC25052421843BCBFD040F2
:100230001843704792F0000F81F4000106BF80F46C
:1002400000000132013BB5E74FEA41037FEA226C2F
:1002500018BF7FEA236C21D092EA030F04D092F0FA
:10026000000F08BF0846704790EA010F1CBF00202E
:10027000704712F07F4F04D1400028BF40F000408B
:10028000704712F100723CBF00F50000704700F0AB
:10029000004343F0FE4040F4000070477FEA2262D2
:1002A00016BF08467FEA23630146420206BF5FEAA3
:1002B000412390EA010F40F4800070474FF00003A3
:1002C00004E000BF10F0004348BF40425FEA000C6A
:1002D00008BF704743F0964301464FF000001CE012
:1002E00050EA010208BF70474FF000030AE000BF68
:1002F00050EA010208BF704711F0004302D54042A6
:1003000061EB41015FEA010C02BF84460146002017
:1003100043F0B64308BFA3F18053A3F50003BCFA32
:100320008CF2083AA3EBC25310DB01FA02FC6344DF
:1003300000FA02FCC2F12002BCF1004F20FA02F2E6
:1003400043EB020008BF20F00100704702F12002D9
:1003500001FA02FCC2F1200250EA4C0021FA02F23A
:1003600043EB020008BF20EADC7070474FF0FF0C3F
:100370001CEAD0521EBF1CEAD15392EA0C0F93EA3A
:100380000C0F6FD01A4480EA010C400218BF5FEADC
:1003900041211ED04FF0006343EA501043EA51114F
:1003A000A0FB01310CF00040B1F5000F3EBF490049
:1003B00041EAD3715B0040EA010062F17F02FD2A4D
:1003C0001DD8B3F1004F40EBC25008BF20F0010030
:1003D000704790F0000F0CF0004C08BF49024CEA47
:1003E000502040EA51207F3AC2BFD2F1FF0340EAD9
:1003F000C250704740F400004FF00003013A5DDC4A
:1004000012F1190FDCBF00F000407047C2F100028A
:10041000410021FA02F1C2F1200200FA02FC5FEA77
:10042000310040F1000053EA4C0308BF20EADC70C1
:10043000704792F0000F00F0004C02BF400010F433
:10044000000F013AF9D040EA0C0093F0000F01F0E0
:10045000004C02BF490011F4000F013BF9D041EA02
:100460000C018FE70CEAD15392EA0C0F18BF93EA04
:100470000C0F0AD030F0004C18BF31F0004CD8D12E
:1004800080EA010000F00040704790F0000F17BFB5
:1004900090F0004F084691F0000F91F0004F14D0FB
:1004A00092EA0C0F01D142020FD193EA0C0F03D153
:1004B0004B0218BF084608D180EA010000F0004056
:1004C00040F0FE4040F40000704740F0FE4040F431
:1004D000400070474FF0FF0C1CEAD0521EBF1CEAD0
:1004E000D15392EA0C0F93EA0C0F69D0A2EB0302EE
:1004F00080EA010C49024FEA402037D04FF0805388
:1005000043EA111143EA10130CF000408B4238BF4C
:100510005B0042F17D024FF4000C8B4224BF5B1A5A
:1005200040EA0C00B3EB510F24BFA3EB510340EAA8
:100530005C00B3EB910F24BFA3EB910340EA9C0056
:10054000B3EBD10F24BFA3EBD10340EADC001B01C6
:1005500018BF5FEA1C1CE0D1FD2A3FF650AF8B426A
:1005600040EBC25008BF20F0010070470CF0004C77
:100570004CEA50207F32C2BFD2F1FF0340EAC250A2
:10058000704740F400004FF00003013A37E792F063
:10059000000F00F0004C02BF400010F4000F013AC1
:1005A000F9D040EA0C0093F0000F01F0004C02BFBC
:1005B000490011F4000F013BF9D041EA0C0195E725
:1005C0000CEAD15392EA0C0F08D142027FF47DAFBE
:1005D00093EA0C0F7FF470AF084676E793EA0C0FAE
:1005E00004D14B023FF44CAF08466EE730F0004CAC
:1005F00018BF31F0004CCAD130F000427FF45CAF3C
:1006000031F000437FF43CAF5FE700BF4FF0FF3CA9
:1006100006E000BF4FF0010C02E000BF4FF0010CFC
:100620004DF804CD4FEA40024FEA41037FEA226CC5
:1006300018BF7FEA236C11D001B052EA530C18BFE7
:1006400090EA010F58BFB2EB030088BFC81738BF4C
:100650006FEAE17018BF40F0010070477FEA226C3A
:1006600002D15FEA402C05D17FEA236CE4D15FEA36
:10067000412CE1D05DF8040B704700BF844608466A
:100680006146FFE70FB5FFF7C9FF002848BF10F12B
:10069000000F0FBD4DF808EDFFF7F4FF0CBF012070
:1006A00000205DF808FB00BF4DF808EDFFF7EAFFFA
:1006B00034BF012000205DF808FB00BF4DF808EDB5
:1006C000FFF7E0FF94BF012000205DF808FB00BFAA
:1006D0004DF808EDFFF7D2FF94BF012000205DF830
:1006E00008FB00BF4DF808EDFFF7C8FF34BF01203D
:1006F00000205DF808FB00BF4FEA40024FEA4103CB
:100700007FEA226C02D15FEA402C08D17FEA236C99
:1007100002D15FEA412C02D14FF0000070474FF048
:1007200001007047034613F8012B002AFBD1181A69
:100730000138704781F0004102E000BF83F00043C0
:1007400030B54FEA41044FEA430594EA050F08BF6C
:1007500090EA020F1FBF54EA000C55EA020C7FEA30
:10076000645C7FEA655C00F0E2804FEA5454D4EBAD
:100770005555B8BF6D420CDD2C4480EA020281EA77
:10078000030382EA000083EA010180EA020281EAAF
:100790000303362D88BF30BD11F0004F4FEA013101
:1007A0004FF4801C4CEA113102D0404261EB410110
:1007B00013F0004F4FEA03334CEA133302D0524296
:1007C00063EB430394EA050F00F0A780A4F1010452
:1007D000D5F1200E0DDB02FA0EFC22FA05F280188C
:1007E00041F1000103FA0EF2801843FA05F3594172
:1007F0000EE0A5F120050EF1200E012A03FA0EFCF1
:1008000028BF4CF0020C43FA05F3C01851EBE3711A
:1008100001F0004507D54FF0000EDCF1000C7EEB37
:1008200000006EEB0101B1F5801F1BD3B1F5001F75
:100830000CD349085FEA30004FEA3C0C04F1010494
:100840004FEA445212F5800F80F09A80BCF1004FBD
:1008500008BF5FEA500C50F1000041EB045141EA3F
:10086000050130BD5FEA4C0C404141EB0101013C08
:1008700028BFB1F5801FE9D291F0000F04BF0146F7
:100880000020B1FA81F308BF2033A3F10B03B3F1C9
:1008900020020CDA0C3208DD02F1140CC2F10C0259
:1008A00001FA0CF021FA02F10CE002F11402D8BFB7
:1008B000C2F1200C01FA02F120FA0CFCDCBF41EA83
:1008C0000C019040E41AA2BF01EB0451294330BD52
:1008D0006FEA04041F3C1CDA0C340EDC04F114042F
:1008E000C4F1200220FA04F001FA02F340EA030006
:1008F00021FA04F345EA030130BDC4F10C04C4F14C
:10090000200220FA02F001FA04F340EA030029462B
:1009100030BD21FA04F0294630BD94F0000F83F475
:10092000801306BF81F480110134013D4EE77FEA58
:10093000645C18BF7FEA655C29D094EA050F08BFA4
:1009400090EA020F05D054EA000C04BF1946104685
:1009500030BD91EA030F1EBF0021002030BD5FEAC9
:10096000545C05D14000494128BF41F0004130BDF1
:1009700014F580043CBF01F5801130BD01F0004545
:1009800045F0FE4141F470014FF0000030BD7FEAB8
:10099000645C1ABF194610467FEA655C1CBF0B46B3
:1009A000024650EA013406BF52EA033591EA030FCA
:1009B00041F4002130BD00BF90F0000F04BF0021C2
:1009C000704730B54FF4806404F132044FF00005F5
:1009D0004FF0000150E700BF90F0000F04BF00216E
:1009E000704730B54FF4806404F1320410F00045D4
:1009F00048BF40424FF000013EE700BF42004FEACF
:100A0000E2014FEA31014FEA02701FBF12F07F434B
:100A100093F07F4F81F06051704732F07F4208BF02
:100A2000704793F07F4F04BF41F40021704730B509
:100A30004FF4607401F0004521F000411CE700BF55
:100A400050EA010208BF704730B54FF000050AE0D8
:100A500050EA010208BF704730B511F0004502D5D9
:100A6000404261EB41014FF4806404F132045FEADB
:100A7000915C3FF4D8AE4FF003025FEADC0C18BF84
:100A800003325FEADC0C18BF033202EBDC02C2F176
:100A9000200300FA03FC20FA02F001FA03FE40EA08
:100AA0000E0021FA02F11444BDE600BF70B54FF00C
:100AB000FF0C4CF4E06C1CEA11541DBF1CEA1355EA
:100AC00094EA0C0F95EA0C0F00F0DEF82C4481EA52
:100AD000030621EA4C5123EA4C5350EA013518BF72
:100AE00052EA033541F4801143F4801338D0A0FB5F
:100AF00002CE4FF00005E1FB02E506F00042E0FB0C
:100B000003E54FF00006E1FB03569CF0000F18BF11
:100B10004EF0010EA4F1FF04B6F5007F64F54074B9
:100B200004D25FEA4E0E6D4146EB060642EAC6214C
:100B300041EA55514FEAC52040EA5E504FEACE2EB9
:100B4000B4F1FD0C88BFBCF5E06F1ED8BEF1004FBC
:100B500008BF5FEA500E50F1000041EB045170BD38
:100B600006F0004646EA010140EA020081EA03017C
:100B7000B4EB5C04C2BFD4EB0C0541EA045170BD78
:100B800041F480114FF0000E013C00F3AB8014F1F2
:100B9000360FDEBF002001F0004170BDC4F100043B
:100BA000203C35DA0C341BDC04F11404C4F12005BC
:100BB00000FA05F320FA04F001FA05F240EA020017
:100BC00001F0004221F0004110EBD37021FA04F64D
:100BD00042EB06015EEA430E08BF20EAD37070BD07
:100BE000C4F10C04C4F1200500FA04F320FA05F066
:100BF00001FA04F240EA020001F0004110EBD37068
:100C000041F100015EEA430E08BF20EAD37070BDD7
:100C1000C4F1200500FA05F24EEA020E20FA04F3B0
:100C200001FA05F243EA020321FA04F001F000415F
:100C300021FA04F220EA020000EBD3705EEA430ED0
:100C400008BF20EAD37070BD94F0000F0FD101F0FF
:100C50000046400041EB010111F4801F08BF013C38
:100C6000F7D041EA060195F0000F18BF704703F076
:100C70000046520043EB030313F4801F08BF013DFD
:100C8000F7D043EA0603704794EA0C0F0CEA1355B9
:100C900018BF95EA0C0F0CD050EA410618BF52EA73
:100CA0004306D1D181EA030101F000414FF0000079
:100CB00070BD50EA410606BF1046194652EA430687
:100CC00019D094EA0C0F02D150EA013613D195EAFB
:100CD0000C0F05D152EA03361CBF104619460AD143
:100CE00081EA030101F0004141F0FE4141F470014D
:100CF0004FF0000070BD41F0FE4141F4780170BD3D
:100D000070B54FF0FF0C4CF4E06C1CEA11541DBFA1
:100D10001CEA135594EA0C0F95EA0C0F00F0A7F8A3
:100D2000A4EB050481EA030E52EA03354FEA0131D0
:100D300000F088804FEA03334FF0805545EA1313E3
:100D400043EA12634FEA022245EA111545EA1065AB
:100D50004FEA00260EF000419D4208BF964244F142
:100D6000FD0404F5407402D25B084FEA3202B61A61
:100D700065EB03055B084FEA32024FF480104FF435
:100D8000002CB6EB020E75EB030E22BFB61A7546A9
:100D900040EA0C005B084FEA3202B6EB020E75EB3C
:100DA000030E22BFB61A754640EA5C005B084FEAA4
:100DB0003202B6EB020E75EB030E22BFB61A754671
:100DC00040EA9C005B084FEA3202B6EB020E75EB7C
:100DD000030E22BFB61A754640EADC0055EA060E3D
:100DE00018D04FEA051545EA16754FEA06164FEA80
:100DF000C30343EA52734FEAC2025FEA1C1CC0D12C
:100E000011F4801F0BD141EA00014FF000004FF0B8
:100E1000004CB6E711F4801F04BF01430020B4F179
:100E2000FD0C88BFBCF5E06F3FF6AFAEB5EB030C31
:100E300004BFB6EB020C5FEA500C50F1000041EB2E
:100E4000045170BD0EF0004E4EEA113114EB5C04FB
:100E5000C2BFD4EB0C0541EA045170BD41F48011CE
:100E60004FF0000E013C90E645EA060E8DE60CEAD6
:100E7000135594EA0C0F08BF95EA0C0F3FF43BAFF3
:100E800094EA0C0F0AD150EA01347FF434AF95EAAA
:100E90000C0F7FF425AF104619462CE795EA0C0F8E
:100EA00006D152EA03353FF4FDAE1046194622E75B
:100EB00050EA410618BF52EA43067FF4C5AE50EA35
:100EC00041047FF40DAF52EA43057FF4EBAE12E725
:100ED0004FF0FF3C06E000BF4FF0010C02E000BF06
:100EE0004FF0010C4DF804CD4FEA410C7FEA6C5CE9
:100EF0004FEA430C18BF7FEA6C5C1BD001B050EA8C
:100F0000410C0CBF52EA430C91EA030F02BF90EA76
:100F1000020F0020704710F1000F91EA030F58BF35
:100F2000994208BF90422CBFD8176FEAE37040F097
:100F3000010070474FEA410C7FEA6C5C02D150EA35
:100F4000013C07D14FEA430C7FEA6C5CD6D152EAF0
:100F5000033CD3D05DF8040B704700BF84461046B5
:100F600062468C461946634600E000BF01B5FFF7B4
:100F7000B7FF002848BF10F1000F01BD4DF808ED84
:100F8000FFF7F4FF0CBF012000205DF808FB00BF55
:100F90004DF808EDFFF7EAFF34BF012000205DF8AF
:100FA00008FB00BF4DF808EDFFF7E0FF94BF0120FC
:100FB00000205DF808FB00BF4DF808EDFFF7CEFFFD
:100FC00094BF012000205DF808FB00BF4DF808ED3C
:100FD000FFF7C4FF34BF012000205DF808FB00BF0D
:100FE0004FEA410C7FEA6C5C02D150EA013C0AD125
:100FF0004FEA430C7FEA6C5C02D152EA033C02D117
:101000004FF0000070474FF0010070474FEA410277
:1010100012F5001215D211D56FF47873B3EB62524A
:1010200012D94FEAC12343F0004343EA505311F071
:10103000004F23FA02F018BF404270474FF0000003
:10104000704750EA013005D111F0004008BF6FF041
:10105000004070474FF00000704700BF0B6870B44D
:1010600023F001030B6014230C1A083CB4FBF3F4C7
:1010700000230B60537816781B0343EA8633967877
:101080000D6843EA8623D67843EA0623967943EA35
:101090004613167943EA0613567943EA86132B431F
:1010A00043F080030B609368A500CB60D3688B602E
:1010B000138A4B600F23AB4043600B68D57C43EA37
:1010C00085030B600B68927C43EA42030B600B685C
:1010D00043F001030B60084B984205D104F10B006B
:1010E000C0B270BC00F0AAB8044B984202D104F11F
:1010F0003800F5E770BC7047000002400004024071
:101100001B4B07B51A6892012FD55A6842F000723E
:101110005A60184A116841F400711160516821F455
:1011200080515160D3F88020012122F00102C3F8E0
:1011300080200023104A01931370104A1370104A44
:10114000104B11700221104A1868117001A900F0AB
:10115000AFFE019B4BB14FF0E0234FF08052C3F83C
:10116000042DBFF34F8FBFF36F8F03B000BD00BFDF
:101170000000024000540040FB010020FC01002060
:10118000FA0100200C020020FD0100202DE9F041B1
:1011900000254FF400770126224C8AB0224800F047
:1011A000ABF9204600F0F4F9204800F009FA0123D9
:1011B000072240211C4800F077F8012307228021F4
:1011C000194800F071F8DFF868800221174800F034
:1011D000C5F86A4620461749CDF80C800097ADF84F
:1011E00004608DF80650ADF81250FFF737FFE36E3C
:1011F000204623F00103E3660F4905AACDF82080BD
:101200000597ADF818508DF81A50ADF82660FFF725
:1012100025FFD4F8803023F00103C4F880300AB0F1
:10122000BDE8F08100000240000C01400054004085
:10123000105400406C000240800002401F2809D872
:101240004FF0E0220123D2F8001183400B43C2F893
:10125000003170473F280AD84FF0E0220123D2F82E
:101260000411203883400B43C2F8043170475F28D3
:1012700009D84FF0E0220123D2F80811403883400A
:101280000B43C2F808317047054B5A69D20706D59F
:101290005A6942F001025A610122024B1A707047EA
:1012A00000040140D8010020F0B55C1E022C02F1C0
:1012B000FF3488BF0023062C07D8DFE804F0042C95
:1012C0002C06042C300043F0040300240F260127D1
:1012D00041FA04F5ED071AD5072C23D8D0F800C041
:1012E000A50006FA05FE2CEA0E0CC0F800C0D0F8E6
:1012F00000C003FA05F545EA0C050560022A24D171
:10130000D0F80CC007FA04F545EA0C05C5600134B5
:10131000102CDDD1F0BD43F00803DBB2D5E743F07C
:101320000C03FAE7A4F10805D0F804C0AD0006FAF2
:1013300005FE2CEA0E0CC0F804C0D0F804C003FA75
:1013400005F545EA0C054560D8E7032ADFD1C568F5
:1013500007FA04FC25EA0C05D8E70000036810B57D
:1013600023F0010303604368012923F03F03436036
:101370004368044643F0080343604FF02803C36109
:101380004FF0090303620AD0022918D0236843F002
:1013900001032360236843F48063236010BD436826
:1013A00043F4806363606368074843F400738442D6
:1013B00014BF21201F206360FFF740FFE6E743686A
:1013C00043F40063EEE700BF00540040434B37B5E1
:1013D0005A69D1070ED5424A127822B1414A117892
:1013E00019B9D0221A6103B030BD1278002AFAD0A0
:1013F000D122F7E759695A6911F0020122D09A699E
:10140000374A1278002AEED0364A117829B9364A7E
:10141000D36E43F00103D366E5E71278002AE2D0E9
:101420005A6842F480525A600E222F4BC3F884202F
:101430002E4AC3F88C20D3F8802042F00102C3F872
:101440008020D0E75207CED525480278002ACAD09E
:10145000274A157805F0FF04FDB9196841F40071B9
:1014600019602149CB6E23F00103CB66012301945F
:10147000137004701F4B01A9186800F019FD019B3F
:10148000002BB0D04FF0E0234FF08052C3F8042D72
:10149000BFF34F8FBFF36F8FA5E71478012C0DD1E9
:1014A0001C6844F400741C600F4CE36E23F00103CD
:1014B000E3660223019113700170DBE71278022AC0
:1014C00091D10949CA6E22F00102CA660121054A7A
:1014D00011701A6842F480721A6084E70054004068
:1014E000FC010020FB01002000000240FE01002062
:1014F000FD010020100200200C4B984205D10C4A3F
:10150000936943F00403936170470A4B984204D1F6
:10151000074A936943F00803F5E7074B9842F3D174
:10152000034A936943F01003EDE700BF0008014050
:1015300000100240000C014000100140104B984286
:1015400005D1104A936943F4006393617047B0F189
:10155000804F05D10B4AD36943F00103D361704733
:10156000094B984204D1074AD36943F00203F5E7D7
:10157000064B9842F3D1034AD36943F00403EDE7E5
:10158000002C014000100240000400400008004010
:10159000084B984205D1084A536943F0010353614F
:1015A0007047064B9842FBD1034A536943F002034C
:1015B000F5E700BF000002400010024000040240B6
:1015C000084B984205D1084AD36943F40013D3610C
:1015D0007047064B9842FBD1034AD36943F480031A
:1015E000F5E700BF005400400010024000580040E2
:1015F0000C4B984205D10C4A936943F480439361A4
:1016000070470A4B984205D1074AD36943F4003327
:10161000D3617047064B9842FBD1034AD36943F428
:101620008023F5E7003801400010024000440040EC
:10163000004800400120704708B502F043FB162324
:1016400003604FF0FF3008BD08B502F03BFB1623E6
:101650000360FEE770B50E4615460C46A31B9D427F
:1016600001DC284670BDAFF3008004F8010BF5E7FC
:1016700070B50E4615460C46A31B9D4201DC28465C
:1016800070BD14F8010BAFF30080F5E74FF0FF30A9
:1016900070474FF4005300204B60704701207047A3
:1016A000002070470A4A10B513680BB9094B136044
:1016B00009490A4C1844091B884207D902F002FB69
:1016C0000C2303604FF0FF33184610BD1060FBE79A
:1016D000DC010020801C0020002800200004000005
:1016E0000369DB070AD5036923F001030361044B97
:1016F000984201BF034A136801331360704700BF6B
:1017000000040040E00100200148FFF7E9BF00BFEE
:10171000002C01404FF08040FFF7E2BF0148FFF787
:10172000DFBF00BF000400400148FFF7D9BF00BF82
:10173000000800400368F0B523F0010303608C79D2
:10174000631E04F00106032B2BD8DFE803F002121E
:101750001C23036A43F0010303628B884363042262
:101760000823CD79042D23D8DFE805F01E4D4F5115
:101770005300036A43F0100303628B8883630C22D7
:101780004FF40063EDE7036A43F4807303628B88D0
:10179000C363E4E7036A43F4805303628B88036402
:1017A000EDE700221346DCE7012595402B439BB271
:1017B000022C33D88469002E2DD024F00304551E4A
:1017C0000F2284618469AA4024EA0202826182694C
:1017D000134383614B88C3620B888362036843F0C1
:1017E00080030360036823F010030360036843F081
:1017F00004030360436943F001034361036843F05A
:1018000001030360F0BD0225CFE70325CDE70625E0
:10181000CBE70725C9E724F44074D0E7033C022C4A
:10182000D8D8C46976B124F003040F25C461C46913
:10183000013A05FA02F224EA0202C261C2691343C4
:10184000C361C7E724F44074EFE7C36823F400538F
:10185000C360B9B101291AD0036923F4405303616D
:10186000530803F5F40303F59053B3FBF2F39BB273
:101870008360C36843F00803C360C36843F4005344
:10188000C3607047C36823F48053C360E4E7C36850
:1018900043F48053F9E77047704770470F4B1A784D
:1018A00092B90F4A926992070ED401221A700D4B19
:1018B0001A7852B902220C4B1A670C4A9A67084AE6
:1018C000136843F48073136070471B78012BF6D1C3
:1018D0000522054B1A67064AF0E700BFFC0100200D
:1018E00000540040FD0100200000024002000020E2
:1018F00004000020084A13786BB9084B99698907DE
:1019000009D401211170064A1167064991671A68C6
:1019100042F480721A607047FC01002000540040BD
:1019200000000240010000202DE9F84F694B1A78B1
:10193000002A00F0B5804FF0000A674983F800A044
:101940000B88DFF898B101330B80654B9BF80040A2
:101950001F8858889E881A895B89624DDFF888C184
:10196000FFBAC0BAF6BA52BA5BBAC4B1B1F800E075
:10197000DFF87891DFF878811FFA8EFEBEF1310F23
:10198000D9F80040D8F8001000F28C800FFA82FEDF
:101990007444C9F800401CB22144C8F800102988DA
:1019A000521A15B2BCF800209B1A1CB2FEF78AFC32
:1019B00080463846FEF786FC07463046FEF782FC36
:1019C0000146FEF7D3FC064639463846FEF7CEFC04
:1019D0003146FEF7C3FB01F077F90146404601F0BE
:1019E00071F9414681464046FEF7C0FC3146FEF79C
:1019F000B5FB01F069F90146384601F063F9074685
:101A00002846FEF75FFC3B4D3B49FEF763FD3B4933
:101A1000FEF7ACFC2968FEF7A1FB3949FEF7A6FCEE
:101A2000384906464846FEF7A1FC3749FEF79EFCBA
:101A300001463046FEF792FB286006462046FEF738
:101A400041FCDFF8C8802C49FEF744FD2B49FEF726
:101A50008DFCD8F80010FEF781FB2949FEF786FCC3
:101A6000284904463846FEF781FC2749FEF77EFCEC
:101A700001462046FEF772FB25490446FEF732FE7A
:101A8000234FD8B920462349FEF70EFE00B1214C62
:101A900030461F49C8F80040FEF724FE80B12F6091
:101AA000BDE8F88F4FF0320E94FBFEF491FBFEF18F
:101AB0008BF800A02C80ACF8001070E73C46E7E7FC
:101AC000144C30462146FEF7EFFD0028E8D02C608C
:101AD000E6E700BFFA010020F80100200000002026
:101AE000FE010020EE010020EC010020F4010020A6
:101AF000F0010020E4010020000003430AD7233C4A
:101B000048E17A3FE12E654200D7A33CE80100207E
:101B100000007042000070C213B504460068FFF771
:101B2000EBFC6068FFF70AFD06222189206801238B
:101B3000FFF7BAFBE3896946ADF80230238A606893
:101B4000ADF80030A389ADF804306389ADF80630F4
:101B5000FFF7F0FD02B010BDF0B54FF0804607244E
:101B60008BB00C4F0C4B0D4D6846CDE90235CDE9DD
:101B70000076ADF81040FFF7CFFF094B05A8CDE97F
:101B80000576CDE90735ADF82440FFF7C5FF0BB06A
:101B9000F0BD00BF0008014002000203DC051F4E3B
:101BA0000100010307B500F0F3FB0190142101A827
:101BB00000F05EFDFAE70000124C07B5642000F06B
:101BC00081FDFFF76BFE4FF0FF31206800F09FF9B9
:101BD000FFF764FE4FF0FF31206800F098F900F045
:101BE000D7FB094C01900A2101A800F041FDFFF745
:101BF00081FE4FF0FF31206800F089F9FFF794FE75
:101C0000F1E700BF100200200C02002008B5FFF72A
:101C1000BDFABDE80840FFF79FBF000008B50A48BD
:101C2000FFF76AFC0948FFF7E3FC012306224FF4A3
:101C300000710548FFF738FBBDE808404FF4165225
:101C400000210248FFF701BE0008014000380140B2
:101C500007B5FFF7DBFFFFF7E1FF032200210120BB
:101C600000F004F9104B032218600021012000F05D
:101C7000FDF80E4B0024186002234FF40072CDE9EA
:101C800000340B4923460B4800F064FA01234FF45B
:101C900000720949009309482346019400F05AFA5A
:101CA00000F030FBFEE700BF100200200C02002015
:101CB000645A0008B91B0008715A0008A51B0008E7
:101CC000FEE70000002210B50C490D4B0D485B1AD1
:101CD0009A4209D10C4A0D4BD11A002210468A4271
:101CE00008D1FFF7B5FFFEE710F8014B013201F80C
:101CF000014BEDE703F8010B0132F0E70000002093
:101D0000D8010020545E0008801C0020D80100206B
:101D10004FF0FF3200F10803C0E902234360036182
:101D200000230360704700230361704730B50C68DF
:101D3000631C0AD103695A684A6091608B605960DC
:101D4000036808610133036030BD00F108021346E7
:101D500052681568A542FAD9EDE70369D0E9011286
:101D60008A6051605968814208BF5A60002202614E
:101D7000186801381860704710B5044600F060FE1E
:101D8000A46B00F06DFEB4FA84F0400910BD70B58C
:101D9000044600F055FE94F845506DB2002D01DD6B
:101DA000636AA3B9FF2384F8453000F059FE00F0C0
:101DB00047FE94F844506DB2002D01DD23697BB9D4
:101DC000FF2384F84430BDE8704000F049BE04F1C0
:101DD000240000F0CDFC08B100F05EFD013DDCE721
:101DE00004F1100000F0C4FC08B100F055FD013D05
:101DF000E1E770B50E46044610B3C06B00B3236C28
:101E0000A3FB0035DDB900F01BFED4E90F314B43D5
:101E10002268A563D0185B1A62601A44FF23A06091
:101E200084F84430E26084F8453056B104F1100083
:101E3000FFF76EFF04F12400FFF76AFF12E00020B5
:101E400070BD236973B104F1100000F091FC48B13A
:101E50004FF0E0234FF08052C3F8042DBFF34F8FB3
:101E6000BFF36F8F00F0FCFD0120E9E770B5064677
:101E70000D4610B90024204670BDA1FB0023002BA5
:101E8000F8D1484310F1490FF4D8483000F056FE1D
:101E900004460028EED04DB100F148030121204650
:101EA000C4E90F652360FFF7A4FFE4E70346F5E705
:101EB000F8B504460E46EFF311874FF0500383F355
:101EC0001188BFF36F8FBFF34F8F836BC26B9A4242
:101ED0001BD990F845200133FF2A55B283630CD1FA
:101EE000436A33B1243000F043FC10B10EB101233A
:101EF0003360012087F31188F8BD00F04FFA854266
:101F0000F7D2013584F84550F3E70020F2E7F0B549
:101F1000002504462F462E4685B0019100F090FD25
:101F2000A36BE3B1013BA363236813B900F03AFD4F
:101F3000A060236973B104F1100000F019FC48B1EE
:101F40004FF0E0234FF08052C3F8042DBFF34F8FC2
:101F5000BFF36F8F00F084FD012005B0F0BD019B41
:101F60001BB900F07DFD0020F7E717B902A800F0CB
:101F70005FFC00F075FD00F003FA00F061FD94F8DD
:101F80004430FF2B08BF84F8446094F84530FF2BA1
:101F900008BF84F8456000F063FD01A902A800F0C5
:101FA00053FC50BB2046FFF7E7FE00B323683BB964
:101FB00000F046FDA06800F075FC054600F050FDFD
:101FC000019904F1240000F0C3FB2046FFF7DFFE77
:101FD00000F0A4FA48B94FF0E0234FF08052C3F864
:101FE000042DBFF34F8FBFF36F8F012796E7204675
:101FF000FFF7CDFE00F092FAF7E72046FFF7C7FEA5
:1020000000F08CFA2046FFF7B7FE0028EDD0002D37
:10201000A9D000F015FD616A19B1236B1968C1F1EF
:102020000501A06800F084FC9BE700002DE9F8435F
:1020300006461D4B1D4C1D681D4B89461F681D4BD8
:10204000D3F8008020680430FFF787FE731C16D198
:10205000B9F1000F13D0184B21685A688A60906854
:102060002168C860216804314160216804319160B1
:10207000226853611A6801321A60BDE8F883236848
:102080002168AD195D6001F1040104D34046BDE84B
:10209000F843FFF74BBE3846FFF748FE074B1A6878
:1020A000AA4288BF1D60E8E7380200201403002020
:1020B0008402002080020020400200201C02002038
:1020C000064A13681968064B19B94FF0FF321A60B7
:1020D00070471268D2681268F9E700BF84020020D6
:1020E0001C020020F8B50E4C0E4F0F4E236803B9AA
:1020F000F8BD00F0A5FCFB68DD68281DFFF72DFE8C
:102100003368013B33602368013B236000F0A8FC87
:10211000286B00F08DFD284600F08AFDE6E700BF41
:1021200054020020580200203C0200204FF0E0241E
:102130004FF0805508B5064EFFF7D4FF3368012BEA
:10214000FAD9C4F8045DBFF34F8FBFF36F8FF3E785
:10215000B00200202DE9F0479700814638460E4630
:102160009A46DDF8248000F0E9FC054618B94FF0E6
:10217000FF30BDE8F087542000F0E0FC0446002862
:1021800000F08C8054220021043F01F048FD2563BB
:102190003D4425F007056EB1731E04F133020F367E
:1021A00013F8011F02F8011F09B1B342F8D100234F
:1021B00084F84330089E271D042E28BF0426384685
:1021C000E6626664FFF7AFFDC6F1050604F118008C
:1021D000FFF7A9FD5246494628462461A66164627C
:1021E00000F00AFC2060B8F1000F01D0C8F80040F0
:1021F00000F026FC364B374E1A68DFF8DC800132DF
:102200001A603568002D4DD134601B68012B1FD139
:10221000C14648460135FFF77BFD052D09F114093C
:10222000F7D1DFF8B8902E4D4846FFF771FD2846EC
:10223000FFF76EFD2B48FFF76BFD2B48FFF768FD9E
:102240002A48FFF765FD2A4BC3F80090294B1D6013
:10225000294A136801331360284AE36A11688B42E4
:1022600088BF13601422534308EB03014A68A2603D
:102270009068E0604760976058F803206161013220
:1022800048F8032000F0ECFB1D4B1B6823B13368BA
:10229000DA6AE36A9A4210D301206AE7284600F01E
:1022A000C7FC64E7164B1B68002BD1D13368DA6A90
:1022B000E36A9A4298BF3460CAE74FF0E0234FF0D8
:1022C0008052C3F8042DBFF34F8FBFF36F8FE3E746
:1022D0003C02002014030020B00200209C020020D9
:1022E000880200206C0200205802002040020020DA
:1022F00084020020800200202002002034020020FE
:102300003002002010B586B01022002102A801F092
:1023100086FC144A02AB12F8014B03F8014B002C67
:10232000F9D1114B8022CDE900431048234602A980
:10233000FFF710FF012811D14FF0500383F31188EC
:10234000BFF36F8FBFF34F8F4FF0FF32084B1A6010
:10235000084B1860084B1C6000F0D0FB074B1B6853
:1023600006B010BD845A0008180200202D21000874
:102370001C0200203002002038020020FC5B000814
:10238000024A136801331360704700BF1402002033
:10239000014B1868704700BF38020020014B1868D5
:1023A000704700BF3C0200202DE9F84F504B1B68DE
:1023B000002B40F097804F4B1C6801341C605CB9C7
:1023C0004D4A4E4B1168186810604D4A19601368E9
:1023D00001331360FFF774FE4A4D00222B684A490F
:1023E0009C42DFF828C109D34FF01408424E484FF1
:1023F00033681B689BB94FF0FF332B604548DCF80E
:10240000003004681420DB6A4343C858012898BF91
:10241000002C14BF012000201043BDE8F88F336862
:10242000DB68DB685868844201D22860E6E7D3F8AD
:102430001490D3E902E0CEF80800D3F808E0C0F821
:1024400004E0D9F8040003F1040E704504BFD86815
:10245000C9F80400D9F800000138C9F80000D3F821
:102460002890B9F1000F17D0D3E907A0CAF80800E7
:10247000D3F81CA0C0F804A0D9F8040003F1180A8E
:10248000504504BF186AC9F8040000209862D9F8C2
:1024900000000138C9F80000D86AD7F80090484514
:1024A00008FB00F901EB090A88BF3860DAF804007C
:1024B0009860D0F808B0C3F80CB0CBF804E0C0F8CE
:1024C00008E051F80900DCF800E00130C3F814A07E
:1024D00041F80900D86ADEF82C30984288BF42F0F3
:1024E000010285E70C4A002013680133136094E76A
:1024F0001402002038020020840200208002002004
:10250000240200201C020020B0020020140300203E
:1025100034020020280200202C0200202DE9F84F70
:1025200000F08EFA4A4B1A68013A1A601B682BB108
:10253000002400F095FA2046BDE8F88F454A12685D
:10254000002AF5D09E464FF0140C01274248434C18
:10255000434A444E444D56E0C368DB68D3F82880B4
:10256000D3E90791C9F80810D3F81C90C1F804907A
:10257000D8F8041003F11809494504BF196AC8F8CE
:102580000410D8F80010C3F828E00139C8F800108A
:10259000D3F81480D3E90291C9F80810D3F8089051
:1025A000C1F80490D8F8041003F10409494504BFA8
:1025B000D968C8F80410D8F800100139C8F800101C
:1025C000D96AD4F8008041450CFB01F802EB080AF7
:1025D00088BF2160DAF804109960D1F808B0C3F818
:1025E0000CB0CBF80490C1F8089052F80810C3F86A
:1025F00014A0013142F808103168D3F82C80C96A60
:10260000884500D92F6001680029A5D10BB1FFF7DB
:1026100057FD164D2C6844B10127134EFFF7C4FE39
:1026200000B13760013CF9D12C600F4B1B68002BC7
:102630003FF47EAF0B4B4FF080521B684FF0E0230E
:10264000C3F8042DBFF34F8FBFF36F8F012470E7E2
:10265000140200203C0200206C0200203402002002
:10266000B002002014030020280200202C020020C9
:1026700010B5FFF785FE124B04681A6863182CBF6B
:1026800001210021944211D989B900240360FFF788
:1026900045FF48B94FF0E0234FF08052C3F8042DB6
:1026A000BFF34F8FBFF36F8F204610BD09B99A4219
:1026B000EBD203600021981AFFF7B8FC0124E6E78B
:1026C0003802002008B550B94FF0E0234FF0805297
:1026D000C3F8042DBFF34F8FBFF36F8F08BD0021E8
:1026E000FFF74EFEFFF7A2FCFFF718FF0028EBD024
:1026F000F4E70000114B70B51A68114B12B10122BA
:102700001A6070BD14260F4D1A6029680E4C06FB26
:1027100001F3E25818197AB1426808335268234429
:102720009A42426008BFC268084B08BF4260D26844
:102730001A6029601B68E4E70139E8E71402002009
:102740002802002034020020B002002014030020E0
:1027500010B50C46054B19681831FFF7E7FA20460B
:10276000BDE810400121FFF761BC00BF1403002049
:10277000C36870B5DB689A6AD3E907018160D869DC
:102780004860516803F11800814204BF196A516022
:10279000002199621168013911601F4A1268002AEC
:1027A0002ED1D3E902015A69816098681C1D4860E6
:1027B0005168A14204BFD9685160116801391160A4
:1027C0001649DA6A086882424FF0140088BF0A602E
:1027D000424313498D18686898608668DE607460AB
:1027E000846088585D61013088500E4A1168DA6A49
:1027F000CB6A9A4285BF01200B4B0020186070BD48
:102800000A4A5168D9618C681C62606088601168EE
:102810009A6201311160E8E71402002034020020BE
:10282000B002002014030020280200206C020020C7
:10283000034B1B680360034B1B684360704700BF7A
:10284000240200203802002070B50D46044600F036
:10285000F7F80F4B19682B685A1C17D00D482668DB
:1028600000686268864208D08A4206D800230124A4
:102870002B6000F0F5F8204670BD881A8342F5D928
:102880005B1A134420462B60FFF7D2FF0024F0E7C9
:1028900038020020240200200122014B1A607047F8
:1028A00028020020F8B5044600282ED01D4DC36A2A
:1028B0002A68D26A93422DD282691B4E002AA1BF98
:1028C0002A68D26AC2F105028261142202FB036304
:1028D00042699A421AD1071D3846FFF73EFA2B6823
:1028E000124ADB6A1168E3628B4288BF13601422CC
:1028F0005343F1184A68A2609068E06047609760AF
:10290000F25861610132F2500120F8BD2B68DB6A98
:10291000C362F9E72B68406CDB6A98422CBF002049
:102920000120F2E714030020B0020020340200204E
:1029300070B5044600282FD0436C994238BF194621
:10294000C36A8B4228D0826C012A25D18269134D3B
:10295000002A4FF0140202FB03534269C162A4BF74
:10296000C1F1050181619A4216D1061D3046FFF77B
:10297000F4F90B4AE36A11688B4288BF1360142292
:102980005343E9184A68A2609068E0604660966028
:10299000EA5861610132EA5070BD00BFB002002008
:1029A00034020020034B186810B1836C0133836438
:1029B000704700BF14030020002382B001934FF042
:1029C000500383F31188BFF36F8FBFF34F8F019BC9
:1029D000002BFCD002B0704706480068006880F306
:1029E000088862B661B6BFF34F8FBFF36F8F00DF09
:1029F00000BF000008ED00E04FF0807340F8043C99
:102A0000054B21F0010140F8081C40F80C3C40F84F
:102A1000202C4038704700BFB9290008074B1968BF
:102A20000868B0E8F00F80F30988BFF36F8F4FF0AC
:102A3000000080F311884EF00D0E70471403002043
:102A40004FF0500383F31188BFF36F8FBFF34F8FA5
:102A5000024A136801331360704700BF0C00002066
:102A6000034A1368013B13600BB983F31188704765
:102A70000C000020EFF30980BFF36F8F0D4B1A6835
:102A800020E9F00F106008B54FF0500080F3118876
:102A9000FFF730FE4FF0000080F31188BDE80840DA
:102AA00019680868B0E8F00F80F30988BFF36F8FEA
:102AB000704700001403002008B54FF0500383F363
:102AC0001188BFF36F8FBFF34F8FFFF76DFC28B1F5
:102AD0004FF0E0234FF08052C3F8042D002383F31E
:102AE000118808BD4FF0E02300221A619A6141F677
:102AF0003F725A6107221A61704700004FF0E023CD
:102B000010B50024D3F8202D42F47F02C3F8202D05
:102B1000D3F8202D42F07F42C3F8202DC3F81C4D7E
:102B2000FFF7E0FF044B1C60FFF756FFFFF7E2FDE5
:102B3000FFF742FF204610BD0C000020F8B5431EF1
:102B40000A3362D810F0070300F1080405D0A3F19E
:102B50000902A24259D31030C41A2F4DFFF710FCBE
:102B60002B68EBB92D4A002153070FBF4FF4C05318
:102B700002F5C053073222F0070218BF9B1A134414
:102B80002748083B23F0070341600260C3E90011B6
:102B9000991AC2E900312B60224B1960224B19604F
:102BA000002C37DD204E3068A04233D31C490B681F
:102BB0005A68A24201D21F684FBB2D689D4229D09E
:102BC0000D681F68A2EB040CBCF1100F05F108059D
:102BD0000F6005D91A19C2F804C01F510A602246B5
:102BE000811A42F000425A6000220E481A600F4AD1
:102BF00004681368A14203F10103316038BF01602A
:102C00001360FFF78BFC2846F8BD0024A5E71946A2
:102C10003B46CDE70025F4E72803002034030020DD
:102C20002C03002020030020240300201C0300208C
:102C300038B5054600283BD050F8043C002B37DA65
:102C400050F8082C002A33D123F0004340F8043C0C
:102C5000A0F10804FFF794FB164A55F8041C13680A
:102C60000B441360144B1A461B689C42FBD85068F7
:102C70001518AC4202BF144609185160606821184B
:102C80008B4213D10D4909688B4203D05968014426
:102C900061601968A242216018BF1460084A136875
:102CA00001331360BDE83840FFF738BC1946F1E73F
:102CB00038BD00BF240300202C030020280300207F
:102CC0001803002000F090B838B5054600F01AF857
:102CD000294604462846FDF70FFD20B92846002165
:102CE000FDF7E2FC08B9204638BD00F0EBFF2122D9
:102CF000034600211A600846FDF7ECFB0446204617
:102D000038BD00BF20F00042B2F1FF4F70B504465D
:102D100051D2002A4ED00028034655DB10F0FF4266
:102D200050D15B001802114602F10102F9D5494267
:102D30000024C3F316024FF0190EA1F17F034FF0E8
:102D4000807CC907214642F4000258BF52005E1041
:102D5000520001EB0C039342CFBF134603EB0C016F
:102D60006444D31ABEF1010E4FEA43024FEA5C0CF1
:102D7000EFD1D3B11A4B1B4A186811681A6815466F
:102D8000FDF7EAF901462846FDF798FC68B1144BB7
:102D9000144A186811681B681D46FDF7DFF90146E3
:102DA0002846FDF781FCB0B10234601000F17C5080
:102DB00000EBC65070BD0146FDF7D8FA2146FDF77D
:102DC000CDF970BDC115B3E70146FDF7C5F9014660
:102DD000FDF780FB70BD013424F00104E5E700BF7E
:102DE000045C0008005C00088C460A4621F00041A3
:102DF000B1F1FF4F38B503462ED820F0004EBEF19A
:102E0000FF4F29D8BCF17E5F3BD0901700F0020045
:102E100040EAD375BEF1000F23D051B3B1F1FF4F9B
:102E200039D0BEF1FF4F32D0AEEB010EBEF1F45FF0
:102E30004FEAEE5129DA002A38DA3C3136DA00203E
:102E4000012D3CD0022D3DD02DB12749FDF786F94B
:102E50002649FDF781F938BD19466046FDF77EF930
:102E600038BD40EAD372022A09D0032A05D0184699
:102E700038BD8B420DDB1E4838BD1E4838BD1B488F
:102E800038BDBDE8384000F03FB81948D8E7002BFE
:102E9000F1DA194838BDBEF1FF4F05F1FF3319D003
:102EA000022B1DD8154A52F8230038BD614618463A
:102EB000FDF710FB00F040F900F026F8C0E700F144
:102EC000004038BD0849FDF749F901460748FDF7BC
:102ED00043F938BD022B05D8094A52F8230038BD02
:102EE000002038BD074838BD2EBDBB33DB0F49403D
:102EF000DB0FC93FDB0F49C0DB0FC9BF085C00080F
:102F0000145C0008DB0F493F2DE9F04120F000453B
:102F1000B5F1A14F0446064682B009D3B5F1FF4F83
:102F200074D8002840F3A2806F4802B0BDE8F08159
:102F30006E4B9D427BD8B5F1445F6DD34FF0FF38A7
:102F400021462046FDF712FA01460190FDF70EFAE0
:102F500005466749FDF70AFA6649FDF7FFF8294675
:102F6000FDF704FA6449FDF7F9F82946FDF7FEF983
:102F70006249FDF7F3F82946FDF7F8F96049FDF7D6
:102F8000EDF82946FDF7F2F95E49FDF7E7F80199FA
:102F9000FDF7ECF95C4907462846FDF7E7F95B4980
:102FA000FDF7DAF82946FDF7E1F95949FDF7D4F8BC
:102FB0002946FDF7DBF95749FDF7CEF82946FDF71D
:102FC000D5F95549FDF7C8F82946FDF7CFF901466F
:102FD0003846FDF7C3F82146FDF7C8F9B8F1FF3FC1
:102FE00048D04E4B4E4D53F82810FDF7B5F821460A
:102FF000FDF7B2F8014655F82800FDF7ADF8002EB0
:1030000093DA00F1004002B0BDE8F0810146FDF71F
:10301000A5F802B0BDE8F0814249FDF79FF84FF0F6
:103020007E51FDF75FFB002888D020467DE700F049
:1030300083F83D4B04469D4223D8A3F5D0039D421F
:1030400040D80146FDF78AF84FF07E51FDF784F82D
:103050004FF0804105462046FDF780F8014628469E
:10306000FDF738FA4FF00008044669E72F4802B030
:10307000BDE8F08101462046FDF76EF802B0BDE8DC
:10308000F0812B4B9D4215D84FF07F51FDF764F82E
:103090004FF07F5105462046FDF768F94FF07E510D
:1030A000FDF75CF801462846FDF714FA4FF00208D8
:1030B000044645E701461F48FDF70CFA4FF00308A8
:1030C00004463DE74FF07E51FDF746F84FF07E5144
:1030D00005462046FDF742F801462846FDF7FAF975
:1030E0004FF0010804462BE7DB0FC93FFFFFDF3E2F
:1030F000D769853C59DA4B3D356B883D6E2EBA3D1C
:103100002549123EABAAAA3E21A215BD6BF16E3D28
:1031100095879D3D388EE33DCDCC4C3E205C00082C
:10312000305C0008CAF24971FFFF973FDB0FC9BF4F
:10313000FFFF1B40000080BF20F00040704700BF31
:10314000002B2DE9F0471D46BBBF03F100431D4690
:1031500000232D2388B0149F144627F02007B8BF02
:103160001446129A462F109EDDF84CA0137004D01E
:10317000452F00D10136022300E0032307AA049261
:1031800006AACDE902A2CDE9003622462B4600F080
:1031900047FE472F80461AD1119BDB070ED500EB67
:1031A00006090022002320462946FDF7E7FE08B164
:1031B000CDF81C903022079B4B451ED34046079B01
:1031C000159AA3EB0803136008B0BDE8F087462FFB
:1031D00000EB0609E5D10378302B0AD10022002349
:1031E00020462946FDF7CAFE18B9C6F10106CAF8FD
:1031F0000060DAF800309944D3E7591C07911A703F
:10320000D9E7F7B50029B6BF2D232B234942092959
:10321000027043702BDD0DF10704A6460A26871CB9
:10322000B1FBF6F5A44606FB1512632902F1300244
:10323000294604F1FF340CF8012CF1DC3031ACF1FB
:10324000020204F8011C1446411C72450AD30DF118
:103250000903A3EB0C03A64538BF00233B44181A0F
:1032600003B0F0BD12F8013B01F8013FEDE7302358
:1032700030318370C170031DF1E700002DE9F04F7C
:1032800093B00C46DDF8708016461F46054600F0E8
:10329000CFFC036818460B93FDF744FA0023109304
:1032A000D8F8003094F818A0073323F00703F3E8A8
:1032B0000212D4F800B0CDE90812C8F80030134665
:1032C0000A46C4E91223DDE9088323F000490C9083
:1032D0004FF0FF32404649469A4BFDF781FE70BBE6
:1032E0004FF0FF3240464946964BFDF75BFE30BB40
:1032F000DDE9080100220023FDF74AFE10B12D236D
:1033000084F84330904A914BBAF1470F8CBF9046F6
:10331000984603234FF0000923612BF00403236038
:10332000334621462846009711AA00F0D1F9013012
:1033300040F08F804FF0FF3013B0BDE8F08FDDE933
:10334000082310461946FDF74BFE40B1099B804A01
:10335000002BBCBF2D2384F843307E4BD4E7636839
:103360000AF0DF095A1C3ED10623636000224BF4A9
:1033700080632360069210AACDE904A20FAA0392EB
:103380000DF13B02CDE90132636828460093DDE987
:103390000823FFF7D5FEB9F1470F80460F9929D1D1
:1033A000C81C02DB63688B4241DAAAF1020A5FFAA9
:1033B0008AFA5246013904F150000F91FFF721FFBC
:1033C000109A81461318012A236102DC2268D20771
:1033D00001D5013323619DF83B30002BA0D02D2374
:1033E00084F843309CE7B9F1470FBFD1002BBDD122
:1033F0000123BAE7BAF1650FDBD9BAF1660F18D12C
:10340000002963680BDD216113B92268D00702D55A
:1034100001330B4423614FF00009A165DBE713B9C9
:103420002268D20701D50233F4E70123F2E74FF017
:10343000670A109B8B4205DC23682161D807EAD517
:103440004B1CE7E70029CCBF0122C1F10202134463
:10345000E0E723685A0507D42369424631462846E7
:10346000B847013028D165E7BAF1650F40F2DC803A
:10347000D4E9120100220023FDF780FD90B301235F
:1034800031462846344AB84701303FF453AFDDE9AE
:103490000F38434502DB2368D8070DD5DDE90B2340
:1034A00031462846B84701303FF444AF4FF0000999
:1034B00008F1FF38C84509DC23689B0700F1058146
:1034C000E068119B9842B8BF184635E701233146A2
:1034D000284604F11A02B84701303FF42BAF09F136
:1034E0000109E7E70F9B834238DC01233146284678
:1034F000194AB84701303FF41DAFDDE90F3959EAE9
:10350000030302D12368D907D6D5DDE90B23314661
:103510002846B84701303FF40DAF4FF0000A0F9B2B
:103520005B42534501DC4B4697E701233146284671
:1035300004F11A02B84701303FF4FCAE0AF1010A67
:10354000EDE700BFFFFFEF7F8D5A0008895A0008A2
:10355000955A0008915A0008995A0008A36DDDF8A1
:1035600040B05B45A8BF5B46002B089337DC4FF0AB
:10357000000904F11A02089BD4F858A0002BB4BF2C
:103580005346AAEB03034B4531DC0F9B9B453ADCCA
:103590002368DA0737D40F9BABEB0309ABEB0A03C5
:1035A0009945A8BF9946B9F1000F34DC4FF00008E7
:1035B0000F9BB9F1000FABEB0303A8BFA3EB09030B
:1035C00043457FF779AF01233146284604F11A02BB
:1035D000B84701303FF4AEAE08F10108E8E74246D3
:1035E00031462846089BB8470130C0D1A2E60123E6
:1035F000314628460D92B84701303FF49BAE0D9AF4
:1036000009F10109B7E73146DDE90B232846B84740
:103610000130C0D18EE64B463146284608EB0A02FF
:10362000B8470130C2D185E6DDF840A0BAF1010FFC
:1036300001DCDB0735D50123424631462846B84731
:1036400001303FF477AEDDE90B2331462846B84719
:1036500001303FF46FAED4E91201002200230AF1D9
:10366000FF3AFDF78BFCC8B9534608F10102314619
:103670002846B84701300DD15CE601233146284683
:1036800004F11A02B84701303FF454AE08F10108C2
:10369000D045F2DB4B4604F15002DFE64FF0000864
:1036A000F6E701234246E2E701233146284604F1CA
:1036B0001902B84701303FF43DAE08F10108E36854
:1036C00011995B1A4345EFDCFAE64FF00008F6E784
:1036D0002DE9F047914698468A680B690746934260
:1036E000B8BF1346C9F8003091F843200C46089E35
:1036F00012B10133C9F800302368990642BFD9F8E6
:1037000000300233C9F80030256815F0060507D1EE
:1037100004F1190AE368D9F800209B1AAB4229DCAE
:1037200094F843302268003B18BF012392062ED440
:103730004146384604F14302B047013021D02368A6
:10374000A16803F00603042B12BF0025E568D9F831
:103750000030226904BFED1A25EAE5758B1A2B4467
:103760009142C8BF1D464FF000091A344D451AD189
:10377000002008E00123524641463846B047013058
:1037800003D14FF0FF30BDE8F0870135C2E73020AC
:10379000E11881F843005A1C94F845102244023382
:1037A00082F84310C4E70123224641463846B04719
:1037B0000130E6D009F10109D8E700002DE9F04316
:1037C00098460B7E85B0782B174606460C460C9A19
:1037D00009D8622B01F1430108D8002B00F0DC80EE
:1037E000582B00F0BD8004F1420539E0A3F16300DD
:1037F0001528F8D801A555F820F000BF5538000865
:1038000069380008E7370008E7370008E73700089D
:10381000E737000869380008E7370008E73700088D
:10382000E7370008E73700087939000895380008BD
:1038300027390008E7370008E7370008A1390008F2
:10384000E737000895380008E7370008E737000831
:103850002F390008136804F14205191D1B68116017
:1038600084F842300123A8E013682568181D106011
:10387000280601D51B6803E06A06FBD5B3F90030C2
:10388000002B03DA2D225B4284F843200A22DFF862
:1038900078C113E02568106815F0800F50F8043BDC
:1038A00002D16D0648BF9BB21060227EDFF858C17E
:1038B0006F2A5DD10822002084F843006568002D3E
:1038C000A56005DB20681D4320F00400206051D076
:1038D0000D46B3FBF2F002FB103E1CF80EE09A42DC
:1038E00005F801ED0346F4D9082A0BD12368DA075D
:1038F00008D5236962689A42DEBF302305F8013C8F
:1039000005F1FF35491B21613B4621463046CDF884
:10391000008003AAFFF7DCFE013053D14FF0FF30E7
:1039200005B0BDE8F083236843F0200323607823CB
:10393000DFF8D8C084F845302068156810F0800F93
:1039400055F8043B03D110F0400F18BF9BB215602F
:10395000C50744BF40F02000206023B11022AAE731
:10396000DFF8A4C0E6E7226822F020022260F5E733
:103970000A22A0E70D46B7E71368D4F800C01D1D62
:1039800060691CF0800F15601B6801D0186003E0AF
:103990001CF0400FFAD0188000230D462361B3E7D6
:1039A0001368191D11601D6800212846626800F027
:1039B00092F908B1401B606063682361002384F8BA
:1039C0004330A1E72A46394630462369C0470130D3
:1039D000A4D023689B0714D4E068039B9842B8BF27
:1039E00018469DE701233946304604F11902C047C5
:1039F000013093D00135E36803995B1AAB42F1DCE7
:103A0000EAE70025F7E700BF9B5A0008AC5A000818
:103A1000002310B50446C0E90033C0E904338360D5
:103A200081814366C2818361194608225C3000F0BF
:103A3000F6F80D4B246263620C4BA3620C4BE362FD
:103A40000C4B23630C4B9C4206D003F1680294425A
:103A500002D0D0339C4205D104F15800BDE810409B
:103A600000F036B910BD00BF973B0008B93B000815
:103A7000F13B0008173C0008341B0020024A0349B0
:103A8000034800F06BB800BF10000020FD53000891
:103A90002000002041680C4B10B59942044601D02B
:103AA00001F0ACFCA168094B994202D0204601F01C
:103AB000A5FCE168064B994204D02046BDE81040C1
:103AC00001F09CBC10BD00BF341B00209C1B0020DB
:103AD000041C002010B50A4B0A4A04211A600A4847
:103AE0000022FFF795FF012209210848FFF790FF08
:103AF000BDE81040022212210548FFF789BF00BF30
:103B00006C1C00207D3A0008341B00209C1B002008
:103B1000041C0020014800F0DCB800BF751C002028
:103B2000014800F0D7B800BF751C002010B504464E
:103B3000FFF7F0FF236A1BB1BDE81040FFF7F0BFAD
:103B4000044B2362044B1B68002BF5D1FFF7C2FF27
:103B5000F2E700BF953A00086C1C00202DE9F843FD
:103B60008046894614460026D4E90175013F05D5F3
:103B70002468002CF8D13046BDE8F883AB89012BCE
:103B800007D9B5F90E30013303D029464046C8475E
:103B900006436835EAE710B50C46B1F90E1000F09F
:103BA0006DF80028ABBF636DA3891B1823F4805305
:103BB000ACBF6365A38110BD2DE9F0411F468B8921
:103BC0000546DB050C46164605D502230022B1F951
:103BD0000E1000F041F8A389324623F48053A381EC
:103BE00028463B46B4F90E10BDE8F04100F058B845
:103BF00010B50C46B1F90E1000F02EF8B4F90C30E7
:103C0000421C0BBF23F4805343F48053A381A38150
:103C100018BF606510BDB1F90E1000F00DB8034675
:103C20000244934200D1704703F8011BF9E70000FA
:103C3000004870475C01002038B50023054C05465C
:103C400008462360FDF722FD431C02D1236803B11F
:103C50002B6038BD701C002038B50546084611465B
:103C60000022054C22601A46FDF71AFD431C02D1C2
:103C7000236803B12B6038BD701C002038B50546A1
:103C8000084611460022054C22601A46FDF7E2FC68
:103C9000431C02D1236803B12B6038BD701C002087
:103CA00038B50546084611460022054C22601A46E2
:103CB000FDF7DEFC431C02D1236803B12B6038BD45
:103CC000701C0020014B1868704700BF1C000020CA
:103CD000704770477047034610B5C9B2024493421B
:103CE00001D1002004E01846047801338C42F6D15B
:103CF00010BD0A44914200F1FF3300D1704710B566
:103D000011F8014B914203F8014FF9D110BD2DE993
:103D1000F74F03690C698046A3427EDB013CA30098
:103D200000F1140501F11407009305EB84030193DE
:103D300057F8243055F8242001339A42B2FBF3F6A9
:103D400007EB84092ED34FF0000ABC46AE46D3469B
:103D50005CF8043B98B206FB00A01B0C020C06FBAF
:103D60000323DEF8002080B292B2121A5A44DEF821
:103D700000004FEA134A9BB2C3EB224303EB10430C
:103D800092B242EA0342E1454FEA234B4EF8042B3C
:103D9000DED2009BEB582BB9019B1A1F954230D302
:103DA000C8F81040404601F0A1F9002825DB29465B
:103DB0000020013657F8042BD1F800C01FFA82FE0C
:103DC0001FFA8CF3A3EB0E030344120CC2EB234245
:103DD00002EB1C429BB243EA0243B9454FEA224040
:103DE00041F8043BE6D255F8242005EB840322B9C0
:103DF000043B9D420BD3C8F81040304603B0BDE8E9
:103E0000F08F1368002BCBD1043A013CC6E71A6847
:103E1000002AF0D1043B013CEBE70020EEE7000074
:103E20002DE9F04F16461F46C26999B08146CDE98B
:103E30000E67259C82B9102000F01AFE0246C9F8D0
:103E40001C0020B9EF21A24BA24801F00FFB002378
:103E5000C0E901330360C360116859B1012352689E
:103E6000484693404A608B6000F0F2FE0022D9F889
:103E70001C301A60B7F10008B5BF0123002323608E
:103E80002360954BBCBF28F00048CDF83C8033EA56
:103E900008031AD142F20F73249AC8F3130858EAA0
:103EA0000608136000F06D85269B53B98B4B21E00B
:103EB0008B4B03930833269A1360039819B0BDE81F
:103EC000F08F864B03930333F5E7DDE90E34CDE93C
:103ED0000A34DDE90A0100220023FDF74FF882468B
:103EE00050B10123249A1360269B13B17D4B269A6F
:103EF00013607D4B0393E0E716AB019317AB009380
:103F00004846DDE90A2301F0A5F95FEA1854169D39
:103F100004907CD0DDE90A010B9BA4F2FF34C3F3CB
:103F2000130343F07F5343F44013CDF850A01946D8
:103F300000226E4BFCF702FC5FA3D3E90023FCF7E1
:103F4000B5FD5FA3D3E90023FCF7FAFB0646204644
:103F50000F46FCF741FD5CA3D3E90023FCF7A6FD67
:103F600002460B4630463946FCF7EAFB06460F464A
:103F7000FDF74CF800228046002330463946FDF715
:103F800007F848B14046FCF727FD32463B46FCF7B0
:103F9000F5FF08B908F1FF38B8F1160F54D8DDE97C
:103FA0000A01534B03EBC803D3E90023FCF7F0FFEE
:103FB00000284BD0002308F1FF3811932D1B6B1EF6
:103FC000099349BF00230027C5F101070993B8F100
:103FD000000F3DDB099BCDF840804344099300234B
:103FE0000C93229B092B00F28780052BC4BF043B56
:103FF0002293229BC8BF0024A3F10203D8BF01244F
:10400000032B00F28580DFE803F05153362B179C19
:104010002C4404F23243202BC1BFC3F1400308FA01
:1040200003F804F2124326FA03F3D6BFC3F12003C8
:1040300048EA030006FA03F0FCF7BEFC0122A1F1F6
:10404000F873013C149272E70123B6E71190B5E7CB
:10405000C8F100030C930023A7EB08071093C0E7F7
:1040600001230D93239B434408930133012B0593B4
:10407000B8BF012306E001230D93239B002B4ADDEB
:104080000893059300210422D9F81C0002F11405BD
:104090009D4245D94160484600F09CFD03900028B0
:1040A00041D1024640F2AF11124BCDE60023E3E7C7
:1040B0000023D6E7AFF3008061436F63A787D23F49
:1040C000B3C8608B288AC63FFB799F501344D33F07
:1040D000CA5A0008E15A00080000F07FC65A0008DA
:1040E000BD5A00089A5A0008995A00080000F83F83
:1040F000785C00083A5B0008012400230D942293A9
:104100004FF0FF3300220893059323921223B9E75F
:1041100001230D93F4E70123089305932393B1E75B
:1041200001315200B2E7D9F81C30039A1A60059B9E
:104130000E2B75D8002C73D0B8F1000F40F3C4805B
:104140009F4B08F00F0203EBC20318F4807F4FEA85
:104150002815D3E900AB00F0A380DDE90A01994BF3
:104160000324D3E90823FCF7CBFDCDE9060105F0D4
:104170000F05944E002D40F09980DDE9060152466E
:104180005B46FCF7BDFD82468B46119B002B00F081
:10419000C3800022504659468B4BFCF7F9FE00289D
:1041A00000F0BA80059B002B00F0B680089B002B26
:1041B00036DD08F1FF335046594606930022834B03
:1041C000FCF774FC82468B46089E01342046FCF7BF
:1041D00003FC52465B46FCF769FC00227C4BFCF773
:1041E000AFFA0446A1F15075CDE91245002E40F01A
:1041F0009780002250465946764BFCF79FFA22469C
:104200002B4682468B46FCF7E1FE002840F0C18237
:1042100022465046594605F10043FCF7B9FE20BB43
:10422000179B002BC0F29181B8F10E0F00F38D8126
:10423000634B03EBC803D3E900AB239B002B80F255
:104240001B81059B002B00F317810ED10022614BCF
:1042500050465946FCF72AFC02460B46DDE90A01A6
:10426000FCF7A0FE002800F0978200252C46239B37
:10427000039EDB430693274600242946484600F068
:10428000E7FC002F00F0EE802CB1BC4203D02146A9
:10429000484600F0DDFC3946484600F0D9FCE1E034
:1042A000DDE90A34CDE90634022462E7E90708D5DE
:1042B000D6E9002350465946FCF7F8FB82468B4668
:1042C00001346D10083655E722D0DDE90A01C8F146
:1042D00000053B4B05F00F0203EBC203D3E90023BB
:1042E000FCF7E4FB022482468B46364E2D11002D4E
:1042F0003FF44BAFEA0708D5D6E9002350465946AC
:10430000FCF7D4FB82468B4601346D100836EEE78D
:104310000224DDE90AAB38E7059ECDF8188055E7A1
:10432000274B03EBC60353E902010D9B002B55D02D
:1043300002460B4600202849FCF7E2FCDDE9122387
:10434000FCF7FCF9039BCDE912019D191E46594665
:104350005046FCF75BFE00F13004FCF73DFB0246E3
:104360000B4650465946FCF7E9F9DDE9122306F8F9
:10437000014B82468B46FCF70BFE002872D1524659
:104380005B4600201049FCF7D9F9DDE91223FCF760
:10439000FFFD002840F0BA80AE423FF441AFDDE9B6
:1043A00012010022094BFCF781FB0022CDE912012A
:1043B000064B50465946FCF779FB82468B46C6E7CA
:1043C000785C0008505C00080000F03F00002440CA
:1043D00000001C40000014400000E03FDDE9122313
:1043E000FCF764FB039BCDE912013344039C159356
:1043F00059465046FCF70AFE00F13005FCF7ECFA8E
:104400000B46024659465046FCF798F9159B04F8AE
:10441000015B9C4282468B4627D1DDE91201039B5A
:1044200000221E44AC4BFCF78BF902460B4650466B
:104430005946FCF7CBFD002868D1DDE912230020A6
:10444000A549FCF77BF902460B4650465946FCF756
:104450009FFD00283FF4E4AE334616F8012D302AC4
:10446000FAD01E46DDF818803EE000229B4BFCF798
:104470001DFB82468B46BBE70024039E974D5246A8
:10448000DDE90A015B46FCF73BFCFCF7BFFD074694
:10449000FCF7A2FA52465B46FCF708FB02460B46C5
:1044A000DDE90A01FCF74AF907F1300C06F801CB07
:1044B000DDF80CC0DDF814E0A6EB0C0CE645024676
:1044C0000B4633D1FCF73CF952465B4604460D4699
:1044D000FCF77CFDC0B952465B4620462946FCF7F6
:1044E0004DFD08B1FB070FD44846049900F0B0FB1E
:1044F0000023249A337008F101031360269B002BDC
:104500003FF4DBAC1E60D8E4CDF8188033461E467D
:1045100013F8012D392A06D1039A9A42F7D1069A47
:1045200001320692302201321A709BE722462B4656
:10453000FCF7BCFA02460B46CDE90A230022002311
:10454000FCF71CFD00289AD0CEE70D9A002A00F057
:10455000DF80229A012A00F3C380149A002A00F017
:10456000B78003F233430C9D3E46099A01211A4459
:1045700048461F44099200F01FFC044656B1099BAF
:10458000002B07DDB342A8BF3346099AFF1AF61A7B
:10459000D31A09930C9B0BB30D9B002B00F0BF802B
:1045A000002D00F0B98021462A46484600F0D0FC94
:1045B000049A01460446484600F014FC04998246D9
:1045C000484600F045FB0C9B5B1B0C9300F0AA8057
:1045D00051460C9A484600F0BBFC04900121484625
:1045E00000F0EAFB109B0546002B00F0D1811A4633
:1045F0000146484600F0ACFC229B0546012B00F327
:1046000099800E9B002B40F090800F9BC3F3130307
:10461000002B40F08A800F9B23F000431B0D1B05ED
:10462000002B00F085804FF0010A099B0137013310
:104630000993109B002B00F0B1812B6905EB8303DC
:10464000186900F06DFBC0F12000099B184410F0C0
:104650001F0076D01B2870DCC0F11C000744064404
:1046600003440993002F05DD3A464846049900F0BB
:10467000CBFC0490099B002B05DD29461A464846D1
:1046800000F0C2FC0546119B002B5FD02946049820
:1046900000F02CFD002859DA08F1FF3306930A22B6
:1046A00000234846049900F0F5FA0D9B0490002B76
:1046B00000F07681002321460A22484600F0EAFAFB
:1046C000089B0446002B71DC229B022B47DC6DE02B
:1046D000169BC3F1360346E70000E03F000024408C
:1046E000059B5D1E0C9BAB4208DB5D1B059B002BF5
:1046F000BFF63AAF059BFE1A002336E70C9B109AD3
:10470000EB1A1A440C953E460025059B10922CE7A7
:104710003E460C9D0D9C31E7DDF810A058E70C9A41
:10472000049957E7CDF810A058E74FF0000A80E74A
:104730009A467EE74FF0000A7FE71C2892D0C0F12E
:1047400020001C30099B0744064489E7059BCDF8EF
:104750001880002B24DC0893229B022B22DD089B6F
:10476000002B7FF484AD29460522089B484600F0C3
:1047700091FA01460546049800F0B8FC00287FF73E
:1047800076AD3123039E06F8013B069B0133069369
:1047900071E535462C46F4E7059DCDF81880F9E71C
:1047A000059B08930D9B002B00F0FE80002E05DD7D
:1047B00021463246484600F027FC0446BAF1000F75
:1047C00058D04846616800F005FA064628B9024606
:1047D00040F2EF217F4BFFF737BB226904F10C0158
:1047E000023292000C30FFF784FA0122314648462B
:1047F00000F00AFC0746039B039A03F10108089B9B
:1048000013440A930E9B03F001030993294604986D
:10481000FFF77DFA2146059000F1300B049800F077
:1048200065FC3A4608902946484600F07BFCC26881
:10483000064608F1FF3AFAB90146049800F056FC22
:104840000246314648460C9200F002FA229B0C9A2E
:10485000464642EA0301099B19430FD1BBF1390FC8
:1048600028D0089B002B02DD059B03F1310B8AF851
:1048700000B002E52746BEE70122E2E7089B002BD5
:1048800004DB22990B4309990B4320D1002AEEDD6A
:1048900001220499484600F0B7FB2946049000F035
:1048A00025FC002803DCE2D11BF0010FDFD0BBF1B7
:1048B000390FD9D139238AF8003033461E4616F80D
:1048C000012C013B392A53D001321A70D5E4002A59
:1048D00007DDBBF1390FEDD00BF101038AF8003091
:1048E000CBE40A9B08F801BC43452BD000230A22E5
:1048F0000499484600F0CEF9BC4204904FF0000302
:104900004FF00A022146484606D100F0C3F904469A
:10491000074608F1010879E700F0BCF9394604467A
:1049200000230A22484600F0B5F90746F1E7089B44
:104930002746002B03F1FF36D8BF00260024039B37
:104940005A1C164401220499484600F05DFB294692
:10495000049000F0CBFB0028AFDC02D11BF0010F6C
:10496000ABD133461E4613F8012D302AFAD084E429
:10497000039A9A42A2D1069B013306933123137006
:104980007BE4269B002B7FF493AA134BFFF7B2BA6C
:10499000229B012B7FF735AEDDF840A0012054E6C5
:1049A000089B002B7FF7D8AE039E29460498FFF79B
:1049B000AEF9039B00F1300B06F801BBF21A089B1D
:1049C0009342B4DD00230A224846049900F062F9BC
:1049D0000490EAE73A5B0008BD5A000837B50029A1
:1049E00042D051F8043C0C1F002BB8BFE4180190D2
:1049F00000F0E4F81D4A0198136833B9636014604D
:104A000003B0BDE8304000F0DFB8A34208D9256804
:104A100061198B4201BF19685B6849192160EDE794
:104A20001A465B680BB1A342FAD911685518A54222
:104A30000BD1246821445418A3421160E0D11C68B2
:104A40005B680C4414605360DAE702D90C230360FE
:104A5000D6E7256861198B4201BF19685B6849195F
:104A6000216063605460CBE703B030BD7C1C002044
:104A7000024B0146186800F025B800BF1C0000205A
:104A800070B50F4C0E462168054611B900F0DEFCEA
:104A900020603146284600F0D9FC431C03D14FF07A
:104AA000FF34204670BDC41C24F00304A042F8D09B
:104AB000211A284600F0CAFC0130F2D1EFE700BF0E
:104AC000781C00202DE9F843CD1C25F0030508359E
:104AD0000C2D38BF0C25002D064601DBA94204D958
:104AE0000C2333600020BDE8F883334F00F066F8F4
:104AF0003B681C463CBB29463046FFF7C1FF431CC0
:104B0000044656D13C68A046B8F1000F40D1002CB5
:104B100049D023684146304604EB030900F096FC77
:104B2000814540D1216830466D1A2946FFF7A8FF1C
:104B3000013038D023682B4423603B685A685ABB45
:104B4000C7F800800EE02268521B1ED40B2A16D92B
:104B50006119A342256018BF5960636808BF3960B6
:104B600062514B60304600F02FF804F10B00231D1A
:104B700020F00700C21A1CBF1B1AA350B3E76268DB
:104B8000A3420CBF3A605A60ECE723466468B1E781
:104B90004446D8F80480B7E71A465B68A342FBD1C5
:104BA00000235360DEE70C233046336000F00CF83E
:104BB00098E70560D6E700BF7C1C00200148FFF79E
:104BC00088B800BF741C00200148FFF783B800BFFD
:104BD000741C002070B5C46905460E4684B91020C7
:104BE000FFF746FF0446E86128B902466B21164BE1
:104BF000164800F03BFC0023C0E901330360C360AA
:104C0000E36853B921220421284600F04DFCEB69EA
:104C1000E060DB680BB9002070BD53F8260030B1AE
:104C2000026843F826200023C0E90333F4E701219A
:104C300001FA06F4621D2846920000F035FC0028B7
:104C4000E9D0C0E90164EEE7CA5A00084B5B0008EE
:104C500070B5C46906460D4674B91020FFF708FF09
:104C60000246F06120B98F21084B094800F0FEFB95
:104C7000C0E901440460C4603DB1F3696A68DB685F
:104C800053F82210296043F8225070BDCA5A000818
:104C90004B5B00082DE9F04107460C461E460020FC
:104CA0000D6901F1140CDCF80030013099B202FBFF
:104CB00001611E0C0B0C02FB063389B201EB0341B0
:104CC00085424FEA13464CF8041BECDC0EB3A36894
:104CD000AB4219DC616838460131FFF77BFF804643
:104CE00028B90246BA210C4B0C4800F0BFFB2269E0
:104CF00004F10C01023292000C30FEF7FAFF21465B
:104D00003846FFF7A5FF444604EB850301355E6195
:104D100025612046BDE8F0813A5B00084B5B000846
:104D20000346B0F5803F3ABF030410200020B3F1E2
:104D3000807F3CBF1B020830B3F1805F3CBF1B018A
:104D40000430B3F1804F3CBF9B000230002B04DBEA
:104D50005B0001D501307047202070470368014691
:104D600013F007020BD0DA0722D4980749BF5B087B
:104D70009B0801200B605CBF02200B60704798B25B
:104D8000A0B910201B0CDAB20AB908301B0A1A07A6
:104D900004BF1B0904309A0704BF9B080230DA07DE
:104DA00002D45B0806D001300B6070471046EAE77A
:104DB000002070472020704710B50C460121FFF7F6
:104DC00009FF024628B940F24511044B044800F09F
:104DD0004DFB01234461036110BD00BF3A5B000835
:104DE0004B5B00082DE9F04FD1F81080D2F81090FD
:104DF0000E46C845144685B004DB4B460C46C146FA
:104E000016469846A368616809EB0807BB42B8BF1D
:104E10000131FFF7DFFE30B902464FF4B1714A4B62
:104E20004A4800F023FB00F114052B46002205EB55
:104E3000870B5B4522D306F1140101EB880304F1D3
:104E4000140C0CEB890C029304F1150363458CBF21
:104E5000002301230093ACEB0403153B9B08019353
:104E6000029B03918B420CD8002F03DD5BF8043DBD
:104E7000002B67D0076105B0BDE8F08F43F8042B25
:104E8000D7E7B1F800A0BAF1000F28D0A9464FF03B
:104E9000000E04F1140858F8042BD9F8003096B22B
:104EA0009BB20AFB0633D9F80060120C360C0AFBE1
:104EB0000266734406EB13469BB243EA0643C445BD
:104EC0004FEA164E49F8043BE5D8009A019B002AA8
:104ED0004FEA830308BF00232B44C3F804E0039B7D
:104EE0000431B3F802E0BEF1000F29D02B68A946C7
:104EF00098464FF0000A04F1140632889BB20EFB6C
:104F000002A202EB184243EA024349F8043B56F876
:104F1000043BD9F800804FEA134A1FFA88F30EFBCE
:104F20000A33B44503EB12434FEA134AE5D8009E17
:104F3000019A002E4FEA820208BF00222A445360E1
:104F400004358DE7013F8FE73A5B00084B5B0008B3
:104F50002DE9F843174612F0030280460D4607D0AC
:104F6000264C013A002354F82220FFF793FE054611
:104F7000BF103FD0D8F81C4094B91020FFF778FD3F
:104F80000446C8F81C0030B9024640F2B3111C4B6D
:104F90001C4800F06BFA0023C0E901330360C360D2
:104FA000A66846B940F271214046FFF705FF00238D
:104FB0000646A06003602C464FF0000907F001038D
:104FC0007F1053B1294632464046FFF70BFF21467A
:104FD00005464046FFF73CFE67B1306838B93246B7
:104FE00031464046FFF7FEFE3060C0F800900646AE
:104FF0002C46E3E72846BDE8F88300BF405C000884
:10500000CA5A00084B5B00082DE9F84F0C460746CA
:1050100091462669496806EB6216A3684FEA621A50
:1050200006F1010843450BDB3846FFF7D3FD054683
:1050300048B902464FF4EF712A4B2B4800F016FA9C
:1050400001315B00EEE7002300F114010A46184627
:10505000534539DB20692AEAEA7A01EB8A0104F137
:10506000140319F01F098C4603EB800030D04FF079
:10507000000EC9F1200AE3461A680CF1040C02FA8A
:1050800009F242EA0E02CBF8002053F8042B9842B2
:1050900022FA0AFEEFD8031B153B23F0030304F1A9
:1050A0001502904238BF00231944C1F804E0BEF154
:1050B000000F00D1B04638462146C5F81080FFF7F2
:1050C000C7FD2846BDE8F88F42F8040B0133BFE75F
:1050D00053F8041B0CF1040C98424CF8041CF7D84C
:1050E000E8E700BF3A5B00084B5B000803690A6908
:1050F00030B59B1A0ED11430143100EB820401EB51
:10510000820154F8045D51F8042D954204D006D272
:105110004FF0FF33184630BDA042F2D3FAE7012327
:10512000F8E700002DE9F74F8A460646114650463B
:105130001446FFF7DBFF051E12D129463046FFF764
:1051400049FD024628B940F23721404B404800F063
:105150008DF90123C0E90435104603B0BDE8F08F96
:10516000BCBF5346A2463046DAF80410BABF1C460C
:1051700001250025FFF72EFD024618B940F2452112
:10518000324BE3E7C56000F11405AB464FF0000C6D
:10519000DAF8107026690AF1140904F1140E0AF104
:1051A000100309EB87080EEB86060193019B5EF85E
:1051B000040B53F804AF81B201931FFA8AF35B1A10
:1051C000000C6344C0EB1A4000EB23409BB243EA5F
:1051D000004376454FEA204C4BF8043BE6D8331B9E
:1051E000153B153423F00303A64238BF0023E8180B
:1051F0004B441C1D26460430A5EB090546450ED33D
:1052000008F10301091B21F003010133984538BF60
:105210000021014451F8043DB3B117619CE7E24617
:1052200006EB050E56F8041B1FFA81FCD4444FEA26
:105230001149514409EB2C4989B241EA09414FEA2D
:10524000294CCEF80010D9E7013FE3E73A5B0008AC
:105250004B5B00082DE97343012190469946089E57
:10526000FFF7B8FC054630B9024640F20F31234B38
:10527000234800F0FBF8C9F30A54C9F313030CB137
:1052800043F480130193B8F1000324D068460093DF
:10529000FFF764FD0099E0B1019AC0F1200302FA22
:1052A00003F30B43C2406B610192019B002B0CBFC7
:1052B00001220222AB612A61ACB1A4F2334404445E
:1052C0003460C0F13500099B1860284602B0BDE883
:1052D00070836961E9E701A8FFF740FD019B0122A6
:1052E0006B612030E7E7A0F2324005EB82033060CB
:1052F0001869FFF715FDC0EB4210E4E73A5B0008C0
:105300004B5B0008B1F90C20F8B5160705460C46B2
:1053100051D44B68002B02DC0B6C002B49DDE66A94
:10532000002E46D0002312F480522F682B6031D01B
:10533000626DA389590705D56368D21A636B0BB1F7
:10534000236CD21A00232846E66A216AB047421C21
:10535000B4F90C3006D129681D2944D8264ACA4020
:10536000D60740D5002262602269D904226004D5A4
:10537000421C01D12B6803B96065616B2F60C1B11C
:1053800004F14403994202D02846FFF727FB00238B
:1053900063630EE001232846216AB0470246501C91
:1053A000C7D12B68002BC4D01D2B01D0162B19D1CF
:1053B0002F6000201CE00F69002FFAD0930718BF60
:1053C00000230E6808BF4B69F61B0F608B60002E30
:1053D000EFDD33463A462846216AD4F828C0E04734
:1053E000002806DCA3894FF0FF3043F04003A3817F
:1053F000F8BD0744361AEAE70100402038B50B69CA
:1054000005460C4613B91D46284638BD18B1036A37
:105410000BB9FEF78BFBB4F90C30002BF3D0626EA6
:10542000D00704D4990502D4A06DFEF752FC28469B
:105430002146FFF767FF636E0546DA07E4D4A389C8
:105440009B05E1D4A06DFEF745FCDDE738B50023F0
:10545000054C054608462360FCF724F9431C02D19D
:10546000236803B12B6038BD701C00201FB51D469A
:10547000094B06461B68D86852B1084C3346CDE943
:10548000014200912A46064900F042F800F052F825
:10549000044C2246F2E700BF1C000020AF5B00086E
:1054A000BC5B0008EA5B000870B5A1FB026535B97A
:1054B0003146FFF707FB044628B9204670BD0C2390
:1054C00000240360F9E732462946FEF7A8FBF4E71B
:1054D00082B001B901A942B14BB113780B601278C7
:1054E000101E18BF012002B070471046FBE76FF096
:1054F0000100F8E749B1FF2A8BBF8A23012003602E
:105500000A7088BF4FF0FF307047084670470000B0
:105510000EB403B5014603AB054853F8042B0068ED
:10552000019300F035F802B05DF804EB03B070476A
:105530001C000020062008B500F0F8F90120FCF757
:1055400083F8936810B4013B002B936007DA9469E9
:10555000A34201DB0A2902D110BC00F02DB9136867
:10556000581C10601970084610BC7047F8B5064604
:105570000F461446D518AC4201D1002007E03A4648
:10558000304614F8011BFFF7DCFF431CF3D1F8BDD4
:105590002DE9F04706460D4614461F469CB018B14B
:1055A000036A0BB9FEF7C2FA6B6ED90705D4AB8953
:1055B0009A0502D4A86DFEF78CFBAB891B0701D5B9
:1055C0002B699BB92946304600F034F970B16B6EF7
:1055D000DE0704D54FF0FF301CB0BDE8F087AB8983
:1055E0009C05F7D4A86DFEF775FBF3E7002309933C
:1055F00020238DF8293030234FF001080397694F9D
:105600008DF82A3023461A7899461AB1252A03F1D3
:105610000103F8D1B9EB040A0BD0534622462946C0
:105620003046FFF7A3FF013000F0A380099A5244EF
:10563000099299F80030002B00F09B8000224FF077
:10564000FF33CDE9053209F10109049207928DF883
:1056500053201A924C46052214F8011B5148FEF7BC
:105660003AFB049AD0B9D00644BF20238DF85330BA
:10567000110744BF2B238DF8533099F800302A2BA3
:1056800013D04B4600204FF00A0C07991A781C469D
:10569000303A092A4AD9A8B1079113E0C01B08FA89
:1056A00000F01043A1460490D4E7039B191D1B682A
:1056B0000391002BBBBF5B4242F0020207930793AA
:1056C000B8BF049223782E2B0AD163782A2B32D1CB
:1056D000039B02341A1D1B68039243EAE37305938C
:1056E000DFF8C490032248462178FEF7F4FA38B177
:1056F0004022049BA0EB0900824013430134049331
:105700002178062229488DF82810FEF7E4FA0028AF
:105710003ED0274818BB039B073323F00703083309
:105720000393099B0134034409936BE701200CFBAD
:1057300001210133AAE700234FF00A0C1846059314
:10574000611C0A780C46303A092A03D9002BC7D0CD
:105750000590C5E701230CFB00200131F1E703AB05
:1057600000932A463046134B04A9FDF787FD431CDE
:10577000D7D16B6ED90705D4AB899A0502D4A86D31
:10578000FEF7A8FAAB895B063FF524AF099823E73B
:1057900003AB00932A463046064B04A9FEF70EF8E9
:1057A000E5E700BFEB5B0008F15B0008F55B000874
:1057B0007D3200086D550008F8B505460F461446C1
:1057C00018B1036A0BB9FEF7B1F9A369A360A38905
:1057D0001A0701D5236943B92146284600F02AF863
:1057E00018B14FF0FF363046F8BD23692068C01A63
:1057F0006369834205DC21462846FFF7FFFD002848
:10580000EFD1A3680130013BA3602368FEB25A1CAC
:1058100022601F706369834204D0A389DB07E2D54D
:105820000A2EE0D121462846FFF7E8FD0028DAD00D
:10583000D7E7000038B5284B054618680C4618B164
:10584000036A0BB9FEF772F9B4F90C30190720D4CA
:10585000DA0607D409222A6043F040034FF0FF30F4
:10586000A38131E0580711D5616B41B104F14403C4
:10587000994202D02846FFF7B1F800236363002263
:10588000A3896260226923F02403226043F00803A5
:10589000A38123694BB9A38903F42073B3F5007F77
:1058A00003D02146284600F081F8B4F90C3013F0FB
:1058B00001020AD00022A26062695242A2612269FA
:1058C00042B913F08000C7D138BD990758BF62694B
:1058D000A260F4E70020F7E71C0000201F2938B57C
:1058E00005460C4604D9162303604FF0FF3038BD3F
:1058F000C26B12B152F821304BB9284600F030F893
:10590000224601462846BDE8384000F017B8012B72
:105910000AD0591C03D1162303600120E7E70021B8
:10592000204642F8241098470020E0E7024B014649
:105930001868FFF7D3BF00BF1C00002038B5002354
:10594000064C0546084611462360FBF775FE431CCE
:1059500002D1236803B12B6038BD00BF701C00204A
:10596000FBF768BE70B50E46B1F90E10144600295B
:105970001D4696B00ADAB28912F0800213D14FF4B4
:10598000806100202A60216016B070BD6A4600F078
:1059900047F80028EFDB019A02F47042A2F50053A9
:1059A0005A425A41EBE700224021EAE78B8973B55E
:1059B0009E0705460C4607D504F147032360236183
:1059C0000123636102B070BD01AB6A46FFF7CAFFF5
:1059D000009E28463146FFF775F8B4F90C3038B907
:1059E0009A05EFD423F0030343F00203A381E3E716
:1059F00043F08003A381019BC4E904062060002BCF
:105A0000E0D02846B4F90E1000F01CF80028D9D0D8
:105A1000A38923F0030343F00103A381D2E700002D
:105A200038B50023064C0546084611462360FBF7AF
:105A300030FE431C02D1236803B12B6038BD00BF88
:105A4000701C002038B50023054C0546084623602D
:105A5000FBF724FE431C02D1236803B12B6038BD41
:105A6000701C00205461736B5F4932435F4D505589
:105A7000005461736B5F436F6E74726F6C5F53653C
:105A800072766F0049444C4500494E4600696E6687
:105A9000004E414E006E616E0030003031323334C2
:105AA0003536373839414243444546003031323388
:105AB00034353637383961626364656600496E662D
:105AC000696E697479004E614E005245454E54200E
:105AD0006D616C6C6F632073756363656564656489
